:100000000C9462000C948A000C948A000C948A0070
:100010000C948A000C948A000C948A000C948A0038
:100020000C948A000C948A000C948A000C94460468
:100030000C948A000C948A000C948A000C948A0018
:100040000C94FC030C948A000C948A000C948A0093
:100050000C948A000C948A000C948A000C948A00F8
:100060000C9402050C948A00000000002300260076
:10007000290000000000240027002A0000000000E2
:10008000250028002B0004040404040404040202D4
:100090000202020203030303030301020408102007
:1000A0004080010204081020010204081020000012
:1000B0000008000201000003040700000000000027
:1000C0000000620611241FBECFEFD8E0DEBFCDBF17
:1000D00011E0A0E0B1E0E2E4F2E102C005900D928F
:1000E000A436B107D9F722E0A4E6B1E001C01D9221
:1000F000A332B207E1F710E0C2E6D0E004C02197D6
:10010000FE010E941909C136D107C9F70E944007B4
:100110000C941F090C9400008F929F92AF92BF9293
:10012000FF920F931F93CF93DF93F09008022BE081
:100130002F1508F44CC020910A0208E512E0021BBA
:10014000110927FD1395000F111F000F111F20919A
:100150000902C8E8D0E0C21BD10927FDD395CC0F16
:10016000DD1FCC0FDD1F4E010D2E000CAA08BB08B1
:100170009801012E000C440B550B281939094A0926
:100180005B09DC010E94D40824EB30E040E050E041
:100190000E94AA08820E931EA41EB51E8C169D06F0
:1001A0002CF0E801801691060CF4E4012297CC0FA4
:1001B000DD1F2FB7F8948F2D90E0FC01EE0FFF1F8D
:1001C000E80FF91FED51FE4FD283C1832FBFDF919E
:1001D000CF911F910F91FF90BF90AF909F908F9004
:1001E0000895AF92BF92CF92DF92EF92FF920F935A
:1001F0001F93CF93DF936C017B018B01040F151FBD
:10020000EB015E01AE18BF08C017D10759F0699124
:10021000D601ED91FC910190F081E02DC601099588
:10022000892B79F7C501DF91CF911F910F91FF9035
:10023000EF90DF90CF90BF90AF90089590E0FC01D9
:10024000E255FF4F2491FC01E656FF4F3491FC012B
:10025000EA57FF4FE491EE23C9F0222339F023300F
:1002600001F1A8F4213019F1223029F1F0E0EE0F6C
:10027000FF1FE458FF4FA591B4918FB7F894EC910C
:10028000611126C030953E233C938FBF08952730DF
:10029000A9F02830C9F0243049F7809180008F7D83
:1002A00003C0809180008F7780938000DFCF84B57A
:1002B0008F7784BDDBCF84B58F7DFBCF8091B0007D
:1002C0008F778093B000D2CF8091B0008F7DF9CF2F
:1002D0003E2BDACFCF93DF9390E0FC01E656FF4F41
:1002E00024918A579F4FFC0184918823D1F090E09C
:1002F000880F991FFC01EE58FF4FA591B491FC01A6
:10030000E458FF4FC591D49161110EC09FB7F89486
:100310008C91E22FE0958E238C932881E223E88351
:100320009FBFDF91CF9108958FB7F894EC91E22BA6
:10033000EC938FBFF6CF3FB7F8948091DB0190919B
:10034000DC01A091DD01B091DE0126B5A89B05C0BE
:100350002F3F19F00196A11DB11D3FBFBA2FA92F44
:10036000982F8827BC01CD01620F711D811D911D41
:1003700042E0660F771F881F991F4A95D1F70895AD
:100380008F929F92AF92BF92CF92DF92EF92FF92A5
:100390004B015C010E949B016B017C010E949B014F
:1003A0006C197D098E099F09683E7340810591058E
:1003B000A8F321E0821A9108A108B10888EEC80EBE
:1003C00083E0D81EE11CF11C81149104A104B10446
:1003D00029F7FF90EF90DF90CF90BF90AF909F9064
:1003E0008F900895089520918B01260F3327331F96
:1003F00021323105ECF42091AF01FC0190E080E066
:10040000243069F082E00895A0918B012191AC0124
:1004100045595E4FA40FB52FB11D2C930196861739
:1004200098F380918B01680F60938B0180E00895B1
:1004300081E0089508958FEF9FEF08958FEF9FEF6C
:1004400008958091640190E09195819591090895B6
:10045000CF93DF93CB01EA01642F0E94F301CE0119
:10046000DF91CF910895CF93DF931F92CDB7DEB781
:10047000698361E0CE0101960E94F30181E090E082
:100480000F90DF91CF91089590E080E008958F92D2
:100490009F92AF92BF920F931F93CF93DF93CDB7ED
:1004A000DEB7A1970FB6F894DEBF0FBECDBF19A27D
:1004B000423008F44AE08E010F5D1F4F842E912CCC
:1004C000B12CA12CA50194010E94DC08E62FB901F2
:1004D000CA01EA3044F5E05DD801EE938D01232B8B
:1004E000242B252B79F790E080E0109769F0FD012F
:1004F00001900020E9F73197AF014A1B5B0BBD016A
:100500008BE092E00E94F100A1960FB6F894DEBF56
:100510000FBECDBFDF91CF911F910F91BF90AF90D4
:100520009F908F900895E95CD7CFFC010190002047
:10053000E9F73197AF01481B590BBC018BE092E002
:100540000C94F100CF93DF93EC0160E08E810E9468
:100550001E0161E08E810E941E0160E08E810E947A
:100560001E018BE891E00197F1F7DF91CF9108959B
:10057000CF92DF92EF92FF920F931F93CF93DF936F
:100580006C017C0187E0E80EF11CD0E0C0E0062F92
:1005900010E0B8010C2E02C0759567950A94E2F739
:1005A0006170F70181917F010E941E012196C43084
:1005B000D10579F7C601DF91CF911F910F91FF907F
:1005C000EF90DF90CF900C94A202CF92DF92EF9247
:1005D000FF920F931F93CF93DF93EC01F62E642FBE
:1005E0008C810E941E018D818F3F19F060E00E9476
:1005F0001E010F2D10E08F8584FF25C06E0187E05E
:10060000C80ED11CF12CE12CB8010E2C02C075953E
:1006100067950A94E2F76170F60181916F010E947B
:100620001E01FFEFEF1AFF0A88E0E816F10461F7F8
:10063000CE01DF91CF911F910F91FF90EF90DF904E
:10064000CF900C94A202B80184E0759567958A95C5
:10065000E1F7CE010E94B8026F2DCE01DF91CF915C
:100660001F910F91FF90EF90DF90CF900C94B80204
:1006700040E0682F8BE092E00C94E50281E00E945C
:1006800038038BE39FE10197F1F7089590911E02E3
:10069000891710F08FEF890FE82FF0E0E55FFD4F2D
:1006A000848980680C94380341E00E94E50281E06F
:1006B00090E008951F93CF93DF9385ED8093BC0066
:1006C0008091670190916801A0916901B0916A01E0
:1006D0000796A11DB11D23E0B695A795979587951F
:1006E0002A95D1F72091BC0024FD03C01092AF01E0
:1006F00052C0409167015091680160916901709109
:100700006A01452B462B472B69F30097A105B105DC
:1007100041F025E32A95F1F700000197A109B109FD
:10072000E1CF80916601C1E0C0936501882399F112
:10073000D091B8001091BA008091BC008A7B809360
:10074000BC0060E082E10E941E0160E083E10E9443
:100750001E011092AF01C093B1011092B00161E08F
:1007600082E10E941E0161E083E10E941E018091EE
:10077000B9008E7F8093B9008091B9008D7F8093FE
:10078000B90088E48093B80085E48093BC0010939E
:10079000BA00D093B800DF91CF911F9108950F93C5
:1007A0001F9360E083E00E941E0183E090E00197C8
:1007B000F1F761E083E00E941E0183E290E001977F
:1007C000F1F760E083E00E941E01ECE9F0E0649143
:1007D000E8E8F0E0E491F0E0EE0FFF1FE859FF4F8A
:1007E0008591949100E412E42FE030E0462F0E94BE
:1007F0001D061F910F9108951F920F920FB60F9231
:1008000011242F933F938F939F93AF93BF93809126
:10081000D7019091D801A091D901B091DA0130911E
:10082000D60123E0230F2D3758F50196A11DB11DE8
:100830002093D6018093D7019093D801A093D9013A
:10084000B093DA018091DB019091DC01A091DD0190
:10085000B091DE010196A11DB11D8093DB01909343
:10086000DC01A093DD01B093DE01BF91AF919F91B8
:100870008F913F912F910F900FBE0F901F90189561
:1008800026E8230F0296A11DB11DD2CF1F920F9211
:100890000FB60F9211242F933F934F935F936F9353
:1008A0007F938F939F93AF93BF93CF93DF93EF93F8
:1008B000FF938091D501C0910702D0E087FF24C04B
:1008C00010928500109284008091D5018F5F8093F3
:1008D000D5018091D501082E000C990B8C179D072E
:1008E00024F48091D5018C30C4F1809184009091E2
:1008F0008500049680349C4908F47AC08091840075
:1009000090918500049676C08091D501082E000C48
:10091000990B8C179D07C4F6E091D5018E2FEE0F31
:10092000990BFC01EE0FFF1FE80FF91FED51FE4F71
:10093000808186FFC9CFE091D5018E2FEE0F990BF4
:10094000FC01EE0FFF1FE80FF91FED51FE4F8081F4
:1009500060E08F730E941E01B7CF20918400309118
:100960008500E091D5018E2FEE0F990BFC01EE0F63
:10097000FF1FE80FF91FED51FE4F81819281820F19
:10098000931F9093890080938800E091D5018E2F6A
:10099000EE0F990BFC01EE0FFF1FE80FF91FED5151
:1009A000FE4F808186FF11C0E091D5018E2FEE0FA2
:1009B000990BFC01EE0FFF1FE80FF91FED51FE4FE1
:1009C000808161E08F730E941E01FF91EF91DF91A2
:1009D000CF91BF91AF919F918F917F916F915F91D7
:1009E0004F913F912F910F900FBE0F901F90189530
:1009F00080E49CE990938900809388008FEF809336
:100A0000D501E3CF1F920F920FB60F9211242F93AF
:100A10003F934F935F936F937F938F939F93AF9386
:100A2000BF93EF93FF938091B900887F803609F4DC
:100A30004AC0F0F5883209F4A5C018F5803109F4F0
:100A400099C0B8F4882309F4F5C0883009F492C03D
:100A5000FF91EF91BF91AF919F918F917F916F9196
:100A60005F914F913F912F910F900FBE0F901F906C
:100A70001895883109F486C0803251F78093AE0111
:100A800014C0803409F49BC040F48033B9F3883338
:100A9000F9F68093AE0185ECAEC0803509F483C0D1
:100AA000883509F494C0883499F60E945A03D0CF4F
:100AB000883909F48AC038F5883729F050F4883627
:100AC00011F0803729F683E08093AF011092AD01D9
:100AD00055C0883809F479C0803919F0803809F098
:100AE000B7CF8091AD01803208F06FC0E091AD01C9
:100AF00081E08E0F8093AD018091BB00F0E0E35761
:100B0000FE4F80833BC0803B39F0D0F4803A09F43B
:100B100077C0883A09F09CCF84E08093AF011092AF
:100B20008C0110928B01F0E0E0E0099580918B013F
:100B300081110FC081E080938B0110926B0109C07D
:100B4000803C09F4A8CF883C09F4A5CF883B09F084
:100B50007FCFE0918C0181E08E0F80938C01F0E0DB
:100B6000E559FE4F80818093BB0090918C0180916C
:100B70008B0129C08091D4018093BB0085EC8093C8
:100B8000BC0066CF9091D3018091D201981758F59F
:100B9000E091D30181E08E0F8093D301F0E0EE5419
:100BA000FE4F8081E9CFE091D30181E08E0F8093E9
:100BB000D3018091BB00F0E0EE54FE4F8083909112
:100BC000D3018091D2019817C8F285E8D8CFE0917F
:100BD000D30181E08E0F8093D3018091BB00F0E0C0
:100BE000EE54FE4F80838091B10181115ECF81E090
:100BF0008093B00184EA8093BC001092AF0128CFAB
:100C000085EC8093BC001092AF018091AD018032E1
:100C100030F4E091AD01F0E0E357FE4F10826091B7
:100C2000AD0170E08DE891E0F0E0E0E00995109210
:100C3000AD010ECF1092AE0138CFCF92DF92EF927E
:100C4000FF920F931F93E82FF92F05C00150110950
:100C50002109310961F1908196239417B9F305C0F8
:100C6000015011092109310911F190819623941342
:100C7000F7CFC12CD12CE12CF12C0AC08FEFC81A70
:100C8000D80AE80AF80A0C151D052E053F0579F06B
:100C900080818623841791F36C2D7D2D8E2D9F2DC1
:100CA0001F910F91FF90EF90DF90CF90089560E03B
:100CB00070E080E090E01F910F91FF90EF90DF9047
:100CC000CF900895CF93DF9310920E0210920D02F1
:100CD00086E091E090930C0280930B028DE080936C
:100CE0000F028FEF809310028CE0809311028BE053
:100CF000809312028AE08093130289E080931402A9
:100D000088E080931502109216021092170210923A
:100D100018021092190210921A0281E080931E02AA
:100D200010921F0280E48093200280E180932102D0
:100D300080E58093220261E08DE00E946A0180914B
:100D400010028F3F19F061E00E946A0161E080911A
:100D500011020E946A01CBE0D2E09E012B5032408A
:100D600080911A0284FD0BC084E090E02196281740
:100D7000390744F461E08E810E946A01EECF88E079
:100D800090E0F4CF8BE39DE00197F1F760E0809174
:100D90000F020E941E0160E0809111020E941E015C
:100DA000809110028F3F19F060E00E941E01809137
:100DB0001A0284FD4BC063E08BE092E00E94B8020F
:100DC000CBE4D6E4CE010197F1F763E08BE092E04B
:100DD0000E94B8022197F1F763E08BE092E00E9455
:100DE000B80283E592E00197F1F762E08BE092E0D0
:100DF0000E94B80280911A0280620E94380384E047
:100E000080931B028CE00E9438030E943E0382E024
:100E100080931C0286E00E943803809107028C3088
:100E200058F591E0980F909307028093080290E0A4
:100E3000FC01EE0FFF1FE80FF91FED51FE4F88EB8D
:100E40009BE092838183DF91CF91089580620E941D
:100E500038038BE496E40197F1F780911A028062DF
:100E60000E94380383E592E00197F1F780911A021E
:100E700080620E943803BECF8FEF80930802E3CFD9
:100E8000789484B5826084BD84B5816084BD85B565
:100E9000826085BD85B5816085BD80916E00816071
:100EA00080936E0010928100809181008260809317
:100EB0008100809181008160809381008091800019
:100EC0008160809380008091B10084608093B10044
:100ED0008091B00081608093B00080917A0084603E
:100EE00080937A0080917A00826080937A0080916A
:100EF0007A00816080937A0080917A008068809384
:100F00007A001092C10061E083E00E946A0160E013
:100F100082E00E946A01809108028C3008F051C082
:100F200061E086E00E946A0180910802282F30E08B
:100F3000F901EE0FFF1FE20FF31FED51FE4F9081FD
:100F4000907C966090831092090210920A022CE025
:100F5000622F0E940D09829FB001112430E020E031
:100F6000AB01420F531FFA01EE0FFF1FE40FF51FF5
:100F7000ED51FE4F908196FD16C02F5F3F4F2C30F4
:100F8000310571F781110FC01092800082E08093CB
:100F900081001092850010928400B19A80916F00B8
:100FA000826080936F00E09108028E2F90E0FC0138
:100FB000EE0FFF1FE80FF91FED51FE4F8081806497
:100FC000808384E690E00E948C0080E00E944603CB
:100FD0008EE091E00E94950281E00E9446038BE141
:100FE00091E00E94950260E27EE480E090E00E9441
:100FF000C0010E943E0300E010E0C1E0D0E00E948A
:10100000CF038091E1019091E201892BE9F4E09016
:101010000001F09001011E141F040CF084C0D09355
:10102000E201C093E1018091DF019091E001892B01
:1010300059F490E080E00E948C0081E0E81AF10809
:10104000F0920101E09200010E94CF038091DF0144
:101050009091E001892BB9F4D093E001C093DF01B6
:101060008091E1019091E201892B69F490E080E0A8
:101070000E948C0080910001909101010196909353
:101080000101809300018091E1019091E2010197BB
:10109000C1F48091DF019091E001019791F460E14A
:1010A00077E280E090E00E94C00184E690E00E9438
:1010B0008C001092E2011092E1011092E001109276
:1010C000DF0180E00E9446038AE491E00E949502DD
:1010D00081E00E94460387E591E00E949502C0905E
:1010E0000001D09001010D2C000CEE08FF084AE031
:1010F000C701B601F7FE0EC041E06DE28BE092E061
:101100000E94E50266277727CB016C197D098E09BD
:101110009F094AE00E9447020115110509F46FCFAB
:101120000E9400006CCF80E00E9446038CE291E0B8
:101130000E94950281E00E9446038BE391E00E94A9
:10114000950260E375E780E090E00E94C0010E9494
:101150003E037ACF052E97FB1EF400940E94C1082F
:1011600057FD07D00E94DC0807FC03D04EF40C9416
:10117000C10850954095309521953F4F4F4F5F4F97
:10118000089590958095709561957F4F8F4F9F4FF3
:1011900008950E94FE08A59F900DB49F900DA49FF6
:1011A000800D911D11240895B7FF0C94C9080E9469
:1011B000C908821B930B0895A1E21A2EAA1BBB1B20
:1011C000FD010DC0AA1FBB1FEE1FFF1FA217B30713
:1011D000E407F50720F0A21BB30BE40BF50B661F29
:1011E000771F881F991F1A9469F7609570958095ED
:1011F00090959B01AC01BD01CF010895A29FB00164
:10120000B39FC001A39F700D811D1124911DB29F3A
:10121000700D811D1124911D0895991B79E004C062
:10122000991F961708F0961B881F7A95C9F7809525
:101230000895EE0FFF1F0590F491E02D0994F894A6
:02124000FFCFDE
:101242000400000000005403F1004402F2012020D7
:101252002041524455494E4F202000205041524BCC
:10126200494E472053595354454D20002020534F97
:1012720052525920F09F9981202000205061726BB8
:10128200696E672046756C6C2000202057454C43E0
:101292004F4D4521202000536C6F74204C656674BD
:0412A2003A200000EE
:00000001FF
